:100000000C942A000C9434000C9434000C943400AA
:100010000C9434000C9434000C9434000C94340090
:100020000C9434000C9434000C9434000C94340080
:100030000C9434000C9434000C9434000C94340070
:100040000C9434000C9434000C9434000C94340060
:100050000C94340011241FBECFE5D8E0DEBFCDBF25
:100060000E9446000C945A000C94000014BA0895A3
:1000700083B3089581E08ABB089589B3089581E030
:100080008BBB8BB308951BBA8BB308950E943600C7
:100090000E943A000E9438008130E1F70E943D0042
:1000A000813021F40E9443008BBBF4CF0E943F00BB
:0800B0008BBBF0CFF894FFCFE9
:00000001FF
